:1000000002C1000030C100002EC100002CC1000060
:100010002AC1000028C1000026C1000024C1000040
:1000200022C1000020C100001EC100001CC1000050
:100030001AC1000018C1000016C1000014C1000060
:1000400012C1000010C100000EC100000CC1000070
:100050000AC1000008C1000006C10000F7C6000088
:1000600002C10000BDC6000092C60000FCC0000036
:10007000FAC00000F8C00000F6C00000F4C00000A4
:10008000F2C00000F0C00000EEC00000ECC00000B4
:10009000EAC00000E8C00000E6C00000E4C00000C4
:1000A000E2C00000E0C00000DEC00000DCC00000D4
:1000B000DAC00000D8C00000D6C00000D4C00000E4
:1000C000D2C00000D0C00000CEC00000CCC00000F4
:1000D000CAC00000C8C00000C6C00000C4C0000004
:1000E000C2C00000000020002300260029002C00D0
:1000F0002F00320000010000030106010901000089
:100100002100240027002A002D00300033000101C7
:100110000000040107010A01000022002500280058
:100120002B002E00310034000201000005010801FF
:100130000B0105050505070508080808020202026B
:100140000A0A080804040404010101010101010173
:100150000303030303030303040707070C0C0C0C3E
:100160000C0C0C0C02020202060606060606060627
:100170000B0B0B0B0B0B0B0B0102102020080810B4
:100180002040102040800201020108040201010207
:1001900004081020408080402010080402018004E0
:1001A000020180402010080402010804020101023B
:1001B0000408102040800102040810204080000044
:1001C0000A0B02090C0D0E080703040100000000D1
:1001D000000000000000000000000000000000001F
:1001E00000000000000000000000121110000000DC
:1001F00000000000000000000000000000000000FF
:10020000000000003F0811241FBECFEFD1E2DEBF87
:10021000CDBF00E00CBF12E0A0E0B2E0E2E8FAE1FE
:1002200000E00BBF02C007900D92A033B107D9F7D1
:1002300026E1A0E3B2E001C01D92A838B207E1F7C1
:1002400011E0C3E0D1E000E006C021970109802F52
:10025000FE010E94120CC230D10780E00807A9F706
:1002600062D70C943F0DCCCEAF92BF92CF92DF926B
:10027000EF92FF920F931F93CF93DF936C017B015B
:100280008B01040F151FEB015E01AE18BF08C017EC
:10029000D10759F06991D601ED91FC910190F0815F
:1002A000E02DC6011995892B79F7C501DF91CF9112
:1002B0001F910F91FF90EF90DF90CF90BF90AF9084
:1002C0000895FC01538D448D252F30E0842F90E05C
:1002D000821B930B541710F0CF9608950197089541
:1002E000CF93DF9300D01F921F92CDB7DEB795E07A
:1002F0009983909147029430E0F0909148029B835B
:10030000909149029C838A8387EC92E0DADF06971A
:1003100044F0498150E0BE016F5F7F4F87EC92E06F
:10032000A3DF0F900F900F900F900F90DF91CF9160
:1003300008959FEF9B83E6CFFC01918D828D9817E6
:1003400061F0A28DAE0FBF2FB11D5D968C91928D85
:100350009F5F9F73928F90E008958FEF9FEF0895B6
:10036000FC01918D828D981731F0828DE80FF11D7F
:10037000858D90E008958FEF9FEF0895FC01918D9A
:10038000228D892F90E0805C9F4F821B91098F7393
:100390009927089587EC92E0F1DF21E0892B09F499
:1003A00020E0822F0895FC01A48DA80FB92FB11D64
:1003B000A35ABF4F2C91848D90E001968F7399279B
:1003C000848FA689B7892C93A089B1898C91837079
:1003D00080648C93938D848D981306C00288F38972
:1003E000E02D80818F7D80830895EF92FF920F939F
:1003F0001F93CF93DF93EC0181E0888F9B8D8C8DD1
:1004000098131AC0E889F989808185FF15C09FB7C4
:10041000F894EE89FF896083E889F9898081837087
:10042000806480839FBF81E090E0DF91CF911F9136
:100430000F91FF90EF900895F62E0B8D10E00F5F57
:100440001F4F0F731127E02E8C8D8E110BC00FB62E
:1004500007FCFACFE889F989808185FFF5CFCE01C5
:10046000A2DFF2CFEB8DEC0FFD2FF11DE35AFF4F12
:10047000F0829FB7F8940B8FEA89FB8980818062B4
:10048000D0CFCF93DF93EC01888D8823B1F0AA8978
:10049000BB89E889F9898C9185FD03C0808186FD3F
:1004A0000CC00FB607FCF7CF8C9185FFF2CF80818F
:1004B00085FFEDCFCE0177DFEACFDF91CF910895B1
:1004C0008150823108F05AC0E82FF0E08827E459C3
:1004D000FD4F8F4F0C94120C8C0290027E0284020E
:1004E0008802BE02930299029D02A302A702AB02F8
:1004F000B102B502BE02B902BF02C3028091800000
:100500008F77809380000895809180008F7DF9CF50
:1005100080918000877FF5CF84B58F7784BD089563
:1005200084B58F7DFBCF8091B0008F778093B00032
:1005300008958091B0008F7DF9CF809190008F77E2
:10054000809390000895809190008F7DF9CF8091E5
:100550009000877FF5CF8091A0008F778093A000D7
:1005600008958091A0008F7DF9CF8091A000877FB2
:10057000F5CF809120018F7780932001089580919D
:1005800020018F7DF9CF80912001877FF5CF1F93C8
:10059000CF93DF93282F30E0F901E254FE4F84918E
:1005A000F901E858FE4FD491F901EE5CFE4FC49179
:1005B000CC23A1F0162F811183DFEC2FF0E0EE0F9A
:1005C000FF1FE85EFE4FA591B4918FB7F894EC91B0
:1005D000111108C0D095DE23DC938FBFDF91CF913E
:1005E0001F910895DE2BF8CFCF93DF9390E0FC01AD
:1005F000E858FE4F24918E5C9E4FFC018491882325
:10060000D1F090E0880F991FFC01E250FF4FA591B7
:10061000B491FC01E85EFE4FC591D49161110EC00A
:100620009FB7F8948C91E22FE0958E238C932881CC
:10063000E223E8839FBFDF91CF9108958FB7F894AD
:10064000EC91E22BEC938FBFF6CF3FB7F8948091FB
:10065000310290913202A0913302B091340226B55A
:10066000A89B05C02F3F19F00196A11DB11D3FBFEA
:10067000BA2FA92F982F8827BC01CD01620F711DB9
:10068000811D911D42E0660F771F881F991F4A95B3
:10069000D1F708958F929F92AF92BF92CF92DF923F
:1006A000EF92FF924B015C01D0DF6B017C01CDDF4B
:1006B0006C197D098E099F09683E7340810591057B
:1006C000B0F321E0821A9108A108B10888EEC80EA3
:1006D00083E0D81EE11CF11C81149104A104B10433
:1006E00031F7FF90EF90DF90CF90BF90AF909F9049
:1006F0008F9008952F923F924F925F926F927F92C8
:100700008F929F92AF92BF92CF92DF92EF92FF9221
:100710000F931F93CF93DF93EC01CA5BDE4FA88149
:10072000FC01EA5CFE4F80809180A280B3801C01B6
:10073000BEEB2B1ABEEF3B0AF10140805180628074
:10074000738075016401C418D508E608F70826010E
:1007500037017C01B9EBEB1ABEEFFB0AF701C08051
:100760003196CC2009F44DC0AA23B9F0AB0170E05A
:1007700060E0441555056605770530F521E02083D6
:100780009C01275B3E4FD9011C921882D1018D92AA
:100790009D92AD92BC92139717C070E060E0441533
:1007A00055056605770580F421E02083AC01475BA1
:1007B0005E4FDA012C932883D1018D929D92AD92E8
:1007C000BC921397D7011C9220812223D1F1108271
:1007D000FC01E75BFE4F6081FC018081DF91CF91DE
:1007E0001F910F91FF90EF90DF90CF90BF90AF904F
:1007F0009F908F907F906F905F904F903F902F9041
:10080000C6CEAA2311F0A901B2CF30E020E0041532
:10081000150526053705C0F621E02083AC01475BAE
:100820005E4FDA012C932883D1018D929D92AD9277
:10083000BC921397D7012C93DC01A55BBE4F2C9380
:10084000C3CFDF91CF911F910F91FF90EF90DF9079
:10085000CF90BF90AF909F908F907F906F905F9060
:100860004F903F902F900895FC0121833283438362
:10087000548376836583EA5BFE4F21E020833196C3
:1008800020832FB7F8944091350250913602609141
:100890003702709138022FBF825C9E4FFC0140836B
:1008A0005183628373830895CF92DF92EF92FF9218
:1008B0000F931F93CF93DF93EC01FC01E65CFE4F97
:1008C000408351836283738334970083118322832F
:1008D000338389819A81AB81BC818E01065B1E4F77
:1008E0000097A105B10509F493C03896C080D18066
:1008F000E280F3804C195D096E097F09481759079A
:100900006A077B0708F084C081E0F80180838D814D
:100910009E817E978230910531F083309105A9F454
:10092000FE01EC5DFE4F4081518132976081718103
:100930008A019B01CE01DEDEDF91CF911F910F91E5
:10094000FF90EF90DF90CF900895FE01E85DFE4F9D
:100950008130910541F3FE01E05EFE4F8430910548
:1009600011F38530910599F4FE01EC5CFE4F008196
:100970001181329720813181225331093297408190
:10098000518132976081718162537109D3CF06978B
:1009900099F6FE01E15BFE4F80819181092E000CEA
:1009A000AA0BBB0B84179507A607B70728F660E0CC
:1009B00085E1EDDDDE01A55BBE4F8C91FE01E65ABF
:1009C000FE4F882331F0808191810496918380834A
:1009D0001C92808191818C379105ACF4880F991F0E
:1009E0008C0F9D1FFC01EE59FE4F00811181329743
:1009F00020813181329740815181845A9E4FFC0180
:100A00006081718197CF19821A821B821C8294CFD8
:100A100019821A821B821C82FE01E25BFE4F108249
:100A2000F8018081882309F487CF60E08881AFDDF9
:100A3000F801108281CF87EC92E0A0DC892BB9F11C
:100A40002FB7F8948091350290913602A091370229
:100A5000B09138022FBF8093390290933A02A0934D
:100A60003B02B0933C0287EC92E066DC909101027D
:100A70009923F1F02CE030E030933E0220933D02C8
:100A80008093470210920002109201029091470257
:100A90008091000298130BC08AE090E090933E0290
:100AA00080933D021092000281E08093010208953C
:100AB000E0910002EF5FE0930002F0E0E95BFD4FA0
:100AC0008083E4CF67DC8111B6DF80E090E0892B82
:100AD00049F080E090E0892B29F00E94000081110C
:100AE0000E94000080E090E0892B49F080E090E0D7
:100AF000892B29F00E94000081110E94000080E0F3
:100B000090E0892B49F080E090E0892B29F00E9449
:100B1000000081110C94000008958F929F92BF9263
:100B2000CF92DF92EF92FF920F931F93CF93DF93B9
:100B3000EC01FC01EF5AFE4F208130E0F901E25454
:100B4000FE4F8491F901E858FE4FD490F901EE5C14
:100B5000FE4FC4908E01045B1E4F9E01235B3E4FEF
:100B60007901C11012C0F8011082F8018081F701EB
:100B70008083DF91CF911F910F91FF90EF90DF90D5
:100B8000CF90BF909F908F900895811199DCEC2DAC
:100B9000F0E0EE0FFF1FEC51FF4FA591B491EC91E7
:100BA000DE2281E009F480E0F8018083DD20E9F2B3
:100BB000F70180818111D9CF6E01F2EBCF1AFEEFE0
:100BC000DF0AF60180818111D0CFDE015C963E966E
:100BD000CE01845A9D4F2D913D91219331938E17D3
:100BE0009F07C9F78A849B84C40106D6B82EC40126
:100BF000019602D6FE01E15BFE4F2B2D30E0322F35
:100C00002227820F932F911D9183808361E085E1DC
:100C1000BEDC20E23EE440E050E066E070E0CE0161
:100C200023DE81E0F6018083FE01E55BFE4F10824A
:100C3000C65ADE4F1982188298CFCF92DF92EF9278
:100C4000FF920F931F93CF93DF93EC018C010B5F07
:100C50001F4F6801F12CE12C89819A818E0D9F1D17
:100C6000CBD5F60181936F01FFEFEF1AFF0A88E001
:100C7000E816F10489F7BE01635F7F4F9E01F8011A
:100C800041918F0150E0F90190E080E0DA01082EF7
:100C900002C0B595A7950A94E2F7A0FD2CC0AD85DA
:100CA000BE85B68BA58BAF85B889B08FA78B019613
:100CB00034968830910551F7205E3F4F60177107D9
:100CC000F1F6FE01EB5EFE4F11821082659690E018
:100CD00080E029913991820F931FCE17DF07C9F762
:100CE00099838883DF91CF911F910F91FF90EF90AF
:100CF000DF90CF900895A989BA89B68BA58BAB896F
:100D0000BC89D3CF9F92AF92BF92CF92DF92EF92E6
:100D1000FF920F931F93CF93DF93EC01B42EA52E78
:100D20007B0110E000E0F70191907F01C980DA803B
:100D3000C00ED11EC60160D5981619F0692DC601E6
:100D400063D50F5F1F4F0830110569F70B811C81B8
:100D5000C80152D5A81619F06A2DC80155D50B81C6
:100D60001C810F5F1F4FC80147D5B81619F06B2DB6
:100D7000C8014AD5CE01DF91CF911F910F91FF900D
:100D8000EF90DF90CF90BF90AF909F9056CF1F9283
:100D90000F920FB60F9211240BB60F922F933F9321
:100DA0004F935F936F937F938F939F93AF93BF9373
:100DB000EF93FF9387EC92E0F6DAFF91EF91BF910A
:100DC000AF919F918F917F916F915F914F913F91E3
:100DD0002F910F900BBE0F900FBE0F901F90189584
:100DE0001F920F920FB60F9211240BB60F922F93F2
:100DF0008F939F93EF93FF93E091D702F091D802E6
:100E00008081E091DD02F091DE0282FD1DC09081C3
:100E10008091E0028F5F8F732091E102821741F091
:100E2000E091E002F0E0E953FD4F958F8093E002FE
:100E3000FF91EF919F918F912F910F900BBE0F908B
:100E40000FBE0F901F9018958081F2CF1F920F92C6
:100E50000FB60F9211242F933F938F939F93AF93CD
:100E6000BF938091350290913602A0913702B091E4
:100E700038023091300223E0230F2D3758F50196C8
:100E8000A11DB11D2093300280933502909336024C
:100E9000A0933702B09338028091310290913202D0
:100EA000A0913302B09134020196A11DB11D80932F
:100EB000310290933202A0933302B0933402BF9177
:100EC000AF919F918F913F912F910F900FBE0F90F7
:100ED0001F90189526E8230F0296A11DB11DD2CFB1
:100EE0007F928F929F92AF92BF92CF92DF92EF92BA
:100EF000FF920F931F93CF93DF93EC01862F742EF5
:100F000092E09F83198618861B861A8698E0FE0158
:100F10003C96DF01092F1D920A95E9F724EF36E090
:100F20003D8B2C8B42EC53E05F8B4E8B398F288F9F
:100F30003B8F2A8FEE5EFE4F6AE174E0718360831F
:100F4000329660E27EE4718360833296AEEEB2E068
:100F5000B183A08332967183608332966AEF70E02A
:100F600071836083329660E177E2718360833296A9
:100F7000AAEEB1E0B183A083329671836083B2960A
:100F800010823496DF011D929A95E9F73896118206
:100F90001082329660E071E0DF018B011D920150FA
:100FA0001040E1F7318320838E01045A1D4F22EC5B
:100FB00036E0D8012D933C937E01B2EAEB1ABDEFE7
:100FC000FB0AF701318320836E01F0EACF1AFDEFAF
:100FD000DF0AD6012D933C935E01BEE9AB1ABDEF4B
:100FE000BB0AF5015183408388834E01FFEA8F1AC3
:100FF000FEEF9F0AD4017C9261E0F6DA60E088811E
:10100000C6DA60E0F4018081EFDAD5012D913C91E0
:10101000F60160817181D701ED90FC90F801A0810B
:10102000B1818F8190E00896072D0252110BA80123
:1010300055954795849F8001859F100D949F100DB5
:10104000112419870887085F1F4F1B870A87BD8BEC
:10105000AC8BFF8AEE8A798F688F3B8F2A8FCE0107
:101060000796DF91CF911F910F91FF90EF90DF9046
:10107000CF90BF90AF909F908F907F90DECDE7ECA8
:10108000F2E01382128288EE93E0A0E0B0E0848365
:101090009583A683B78381E192E09183808385EC79
:1010A00090E09587848784EC90E09787868780EC32
:1010B00090E0918B808B81EC90E0938B828B82EC23
:1010C00090E0958B848B86EC90E0978B868B118ECD
:1010D000128E138E148E44E265E280E294E100DF0A
:1010E00046E267E28CEB91E1FBDE48E269E288E5EB
:1010F0009FE0F6DE4AE26BE284EF9CE0F1DE4CE238
:101100006DE280E99AE0ECDE4EE26FE28CE298E07C
:10111000E7DE40E361E388EC95E0E2DE42E363E38F
:1011200084E693E0DDCECF93DF9300D000D01F9212
:101130001F92CDB7DEB7789484B5826084BD84B544
:10114000816084BD85B5826085BD85B5816085BDC2
:1011500080916E00816080936E001092810080917A
:101160008100826080938100809181008160809302
:101170008100809180008160809380008091B10027
:1011800084608093B1008091B00081608093B00052
:1011900080919100826080939100809191008160A4
:1011A0008093910080919000816080939000809165
:1011B000A10082608093A1008091A1008160809352
:1011C000A1008091A00081608093A0008091210106
:1011D00082608093210180912101816080932101AF
:1011E0008091200181608093200180917A00846049
:1011F00080937A0080917A00826080937A00809157
:101200007A00816080937A0080917A008068809370
:101210007A001092C100E091D702F091D80282E0EA
:101220008083E091D302F091D4021082E091D50244
:10123000F091D60280E180831092DF02E091DB0220
:10124000F091DC0286E08083E091D902F091DA022D
:10125000808180618083E091D902F091DA028081FF
:1012600088608083E091D902F091DA028081806801
:101270008083E091D902F091DA0280818F7D8083B2
:1012800068EC70E080E090E005DA45E050E068E06E
:1012900072E087EC92E00E94340181E080930102C9
:1012A00061E085E1A1D960E085E171D91E0129E005
:1012B000220E311C2EE1C22ED12CEE24E394F12C0F
:1012C0008FB7F89440903502509036026090370204
:1012D000709038028FBF4092430250924402609255
:1012E000450270924602B1D960933F02709340026A
:1012F000809341029093420280913D0290913E0280
:101300008B30910509F458C250F4009709F469C074
:101310008A30910509F473C00E94700107C08C30B7
:10132000910509F44CC28D309105B1F780E294E14A
:10133000F4DB8CEB91E1F1DB88E59FE0EEDB84EF01
:101340009CE0EBDB80E99AE0E8DB8CE298E0E5DB0F
:1013500088EC95E0E2DB84E693E0DFDB80903F02FF
:1013600090904002A0904102B0904202409043020F
:1013700050904402609045027090460295018401AD
:10138000B301A20180E294E18FDA9501B301A201D9
:101390008CEB91E189DA9501B301A20188E59FE028
:1013A00083DA9501B301A20184EF9CE07DDA950117
:1013B000B301A20180E99AE077DA9501B301A201B5
:1013C0008CE298E071DA9501B301A20188EC95E016
:1013D0006BDA9501B301A20184E693E065DA72DB72
:1013E0006FCFE7E4F2E0119232E0E736F307D9F786
:1013F0008DE090E090933E0280933D0297CF8091E4
:101400004A02893091F410E000E060E0C801FCD1AC
:101410000F5F1F4F011594E01907B9F781E090E0C5
:1014200090933E0280933D0260C0883081F410E0CA
:1014300000E0C801E1D1682F87EC92E00E94F5013D
:101440000F5F1F4F0115E4E01E0799F7E7CF8A30C1
:1014500059F581E190E0EED18C0121E1FC0120837E
:1014600031E03183AFE1B2E032969C012E5E3F4F16
:10147000E217F30719F08D918193FACF87EC92E090
:101480000E946101F801408150E0481759072CF48F
:10149000B80187EC92E00E943401C80167D2109233
:1014A0003E0210923D0242CF8B3089F4F8E12EE0EB
:1014B0000FB6F894A895F09360000FBE20936000DB
:1014C000F0923E02E0923D0281E090E00EC08D304D
:1014D000A1F5E0914B028FEF8E0F883048F0D0924B
:1014E0003E02C0923D028EE190E00E947001D7CF93
:1014F00060914C02683098F720914D0230E050E046
:1015000040E0542F432F322F222780914E02280F84
:10151000311D411D511D70E0E250E73008F06FC0F1
:10152000F0E08827EA56F54F8F4F7CC1130B260B4E
:10153000390B4C0B5F0B720B850B8E3009F0E8C03A
:1015400060914C02683058F640904D02512C712C3D
:10155000612C762C652C542C442480914E02A301DE
:101560009201280F311D411D511D00914F0210E0C5
:10157000102F002780915002080F111D80905102FA
:10158000912C982C882480915202880E911C809175
:10159000530290E0F82FEE27809154025F01A80ECD
:1015A000B11CA0915502B0E0BA2FAA278091560233
:1015B000A80FB11DE0914B02E150E83008F08FCF49
:1015C000F0E070E08827EF53F54F8F4F2BC1EF0A03
:1015D000030B160B290B3C0B4F0B620B750B9092F8
:1015E00051158092501510934F1500934E15B093DE
:1015F0005515A0935415B0925315A092521580E240
:1016000094E132D95DCF9092ED128092EC1210935A
:10161000EB120093EA12B093F112A093F012B09281
:10162000EF12A092EE128CEB91E1EBCF9092891029
:10163000809288101093871000938610B0938D10BD
:10164000A0938C10B0928B10A0928A1088E59FE036
:10165000D8CF9092250E8092240E1093230E0093E3
:10166000220EB093290EA093280EB092270EA092BE
:10167000260E84EF9CE0C5CF9092C10B8092C00BE8
:101680001093BF0B0093BE0BB093C50BA093C40B7C
:10169000B092C30BA092C20B80E99AE0B2CF9092B5
:1016A0005D0980925C0910935B0900935A09B0931D
:1016B0006109A0936009B0925F09A0925E098CE273
:1016C00098E09FCF9092F9068092F8061093F70663
:1016D0000093F606B093FD06A093FC06B092FB06BD
:1016E000A092FA0688EC95E08CCF909295048092B7
:1016F00094041093930400939204B0939904A093DC
:101700009804B0929704A092960484E693E079CF6F
:101710008F3009F0E4CE70904B02ACE4B2E0FE01F1
:1017200031964F018D9181932E163F06D9F7E72D03
:10173000E150FF0B389708F03CC00091540210E0D4
:10174000102F002780915502080F111D6CE271E0E7
:1017500080E090E00E944A03EFEFE70DE83048F5A3
:10176000F0E0A801B4018827E854F44F8F4F5AC025
:10177000C00BC40BC70BCA0BCD0BD00BD30BD60BB6
:1017800087E294E1BFDA4ACE83EC91E1FBCF8FE5AB
:101790009FE0F8CF8BEF9CE0F5CF87E99AE0F2CF9E
:1017A00083E398E0EFCF8FEC95E0ECCF8BE693E00E
:1017B000E9CF8EE190E034CE8BE090E096CE809140
:1017C000390290913A02A0913B02B0913C02481A32
:1017D000590A6A0A7B0AF5E04F1651046104710444
:1017E00008F4A4CD8BE090E090933E0280933D02FC
:1017F00021E0209301029ACDF999FECF92BD81BDDF
:10180000F89A992780B50895262FF999FECF1FBA27
:1018100092BD81BD20BD0FB6F894FA9AF99A0FBE19
:1018200001960895EE0FFF1F881F8BBF0790F6915A
:10183000E02D19940F931F93CF93DF93823091057E
:1018400010F482E090E0E0918616F091871630E087
:1018500020E0B0E0A0E0309799F42115310509F4BB
:101860004AC0281B390B24303105D8F58A819B8169
:101870006115710589F1FB0193838283FE0111C01B
:10188000408151810281138148175907E0F04817C0
:10189000590799F4109761F012960C9312971396CA
:1018A0001C933296CF01DF91CF911F910F91089534
:1018B0000093861610938716F4CF2115310551F049
:1018C0004217530738F0A901DB019A01BD01DF017E
:1018D000F801C1CFEF01F9CF909387168093861658
:1018E000CDCFFE01E20FF31F819391932250310976
:1018F00039832883D7CF2091841630918516232BE6
:1019000041F4209104023091050230938516209312
:10191000841620910202309103022115310541F411
:101920002DB73EB74091060250910702241B350B9C
:10193000E0918416F0918516E217F307A0F42E1BB0
:101940003F0B2817390778F0AC014E5F5F4F241723
:10195000350748F04E0F5F1F50938516409384164D
:10196000819391939FCFF0E0E0E09CCFCF93DF9302
:101970000097E9F0FC01329713821282A09186163B
:10198000B0918716ED0130E020E01097A1F420819E
:101990003181820F931F209184163091851628176C
:1019A000390709F061C0F0938516E0938416DF9142
:1019B000CF910895EA01CE17DF07E8F54A815B81F0
:1019C0009E0141155105B1F7E901FB83EA83499175
:1019D0005991C40FD51FEC17FD0761F480819181E7
:1019E0000296840F951FE9019983888382819381F0
:1019F0009B838A83F0E0E0E012968D919C9113978F
:101A00000097B9F52D913C911197CD010296820F67
:101A1000931F20918416309185162817390739F6BF
:101A2000309751F51092871610928616B09385164E
:101A3000A0938416BCCFD383C28340815181840F8D
:101A4000951FC817D90761F44E5F5F4F8881998150
:101A5000480F591F518340838A819B8193838283DE
:101A60002115310509F0B0CFF0938716E093861663
:101A70009ECFFD01DC01C0CF13821282D7CFF89434
:021A8000FFCF96
:101A8200010100008816800004DEADBEEF000000F8
:101A920000F501340161014102BE019C01B0015314
:101AA200573A312E333B2048573A312E303B000013
:00000001FF
